:100000000C9403010C9434010C9434010C943401CD
:100010000C9434010C9434010C9434010C9434018C
:100020000C9434010C9434010C9434010C9434017C
:100030000C9434010C9434010C9434010C9434016C
:100040000C9434010C9434010C9434010C9434015C
:100050000C9434010C9434010C9434010C94371931
:100060000C9434010C94FF090C94D30A0C943401C1
:100070000C9434010C9434010C9434010C9434012C
:100080000C9434010C9434010C9434010C9434011C
:100090000C942C0A0C941E0B0C9434010C94340117
:1000A0000C9434010C9434010C9434010C943401FC
:1000B0000C9434010C9434010C9434010C943401EC
:1000C0000C9434010C9434010C9434010C94590AAE
:1000D0000C94690B0C9434010C94860A0C94B40BA8
:1000E0000C94340100002100240027002A002D0078
:1000F0003000330001010000040107010A01000083
:100100002200250028002B002E00310034000201BF
:100110000000050108010B0100002000230026005B
:1001200029002C002F00320000010000030106010D
:10013000090105050505070508080808020202026D
:100140000A0A080804040404010101010101010173
:100150000303030303030303040707070C0C0C0C3E
:100160000C0C0C0C02020202060606060606060627
:100170000B0B0B0B0B0B0B0B0102102020080810B4
:100180002040102040800201020108040201010207
:1001900004081020408080402010080402018004E0
:1001A000020180402010080402010804020101023B
:1001B0000408102040800102040810204080000044
:1001C000090A02080B0C0D070603040100000000D9
:1001D000000000000000000000000000000000001F
:1001E0000000000000000000000011100F000000DF
:1001F00000000000000000000000000000000000FF
:1002000000000000240D11241FBECFEFD1E2DEBF9D
:10021000CDBF00E00CBF12E0A0E0B2E0E4E1FFE3FC
:1002200000E00BBF02C007900D92A237B107D9F7CB
:1002300015E0A2E7B2E001C01D92A032B107E1F7DC
:1002400012E0C6E0D2E000E006C022970109FE01FC
:100250000BBF0E94E11BC430D10780E00807A9F75B
:100260000E94BC070C94881F0C940000CF92DF9270
:10027000EF92FF920F931F936B017C0120E030E01F
:1002800040E05FE40E94A30487FD0EC020E030E060
:1002900040E05FE4C701B6010E94EB020E945D05E9
:1002A0008B019C01305806C0C701B6010E945D0554
:1002B0008B019C01B801C9011F910F91FF90EF9034
:1002C000DF90CF900895A4E0B0E0E9E6F1E00C946F
:1002D000AC1B7C016A01FC018081823008F44AC1B8
:1002E000FB019081923008F442C1843079F494305B
:1002F00009F040C1F7019181FB018181981709F450
:1003000039C1AAE2EA2EA2E0FA2E34C1943009F4EF
:100310002EC1923091F4823009F02CC188E0F701AF
:10032000DA0101900D928A95E1F7FB018181F701D5
:1003300091818923FA0181831CC1823009F417C19C
:10034000F70182819381FB01A281B381F7010481CE
:10035000158126813781FB0184809580A680B78036
:10036000FC01EA1BFB0BAF01F7FF04C04427552734
:100370004E1B5F0B403251050CF074C01E161F0659
:10038000B4F524013501042E04C076946794579483
:1003900047940A94D2F749825A826B827C82412C1C
:1003A000512C3201439404C0440C551C661C771C2C
:1003B0004A95D2F741E0441A510861087108482073
:1003C00059206A207B20812C912C5401839445284C
:1003D0004628472819F4812C912C540149805A80D1
:1003E0006B807C8084289528A628B72846C0EF2BF0
:1003F00009F443C0840F951F28013901042E04C05D
:1004000076946794579447940A94D2F749825A8213
:100410006B827C82412C512C3201439404C0440CE9
:10042000551C661C771C4A95D2F741E0441A5108C6
:1004300061087108402251226222732201E010E01B
:1004400020E030E045284628472819F400E010E075
:10045000980149805A806B807C80042915292629BF
:1004600037290BC0A817B90724F4812C912C54010B
:1004700004C0CD0100E010E09801F7014181FB01CB
:100480005181451709F446C0442349F02401350140
:10049000401A510A620A730A9301820104C00819C2
:1004A00019092A093B0937FD05C0F601118293831A
:1004B00082830CC041E0F6014183938382833095AF
:1004C0002095109501951F4F2F4F3F4F04831583A3
:1004D000268337830EC0880F991FAA1FBB1FF60102
:1004E00084839583A683B7838281938101979383C5
:1004F0008283F60184819581A681B781AC01BD011B
:1005000041505109610971094F3F5F4F6F4F7F4360
:1005100010F30CC0F601418393838283080D191DEB
:100520002A1D3B1D048315832683378383E0F60150
:100530008083448155816681778177FF1AC0DB0112
:10054000CA0181709927AA27BB2776956795579589
:100550004795842B952BA62BB72B84839583A68355
:10056000B7838281938101969383828302C07B014A
:1005700001C07601C7012496E0E10C94C81BA0E2FB
:10058000B0E0E5ECF2E00C94BA1B6D8F7E8F8F8F9C
:1005900098A3298F3A8F4B8F5C8FBE016F5E7F4F80
:1005A000CE014D960E94EC06BE01675F7F4FCE01E3
:1005B00049960E94EC06AE014F5F5F4FBE01675F38
:1005C0007F4FCE0141960E9463010E942206A096B1
:1005D000E2E00C94D61BA0E2B0E0E1EFF2E00C9474
:1005E000BA1B6D8F7E8F8F8F98A3298F3A8F4B8F79
:1005F0005C8FBE016F5E7F4FCE014D960E94EC0670
:10060000BE01675F7F4FCE0149960E94EC068A8546
:1006100091E089278A87AE014F5F5F4FBE01675F18
:100620007F4FCE0141960E9463010E942206A09650
:10063000E2E00C94D61BA0E2B0E0E1E2F3E00C941F
:10064000AC1B6D8F7E8F8F8F98A3298F3A8F4B8F26
:100650005C8FBE016F5E7F4FCE014D960E94EC060F
:10066000BE01675F7F4FCE0149960E94EC069989D3
:10067000923008F412C08985823008F41AC0943090
:1006800021F4823009F4B4C008C0843021F49230DF
:1006900009F4AEC00EC0923051F481E02A899A85E7
:1006A000291301C080E08A8BCE014196A3C082301D
:1006B00051F481E02A899A85291301C080E08A8754
:1006C000CE01099697C08D889E88AF88B88C0D851D
:1006D0001E852F853889E0E2F0E080E090E0DC01C3
:1006E000C12CD12C760140E050E0BA0180FE18C048
:1006F000400F511F621F731F8C0D9D1DAE1DBF1D2E
:10070000412C512C32014394401751076207730763
:1007100018F0412C512C3201840D951DA61DB71DDA
:10072000CC0CDD1CEE1CFF1C37FF02C06894C0F827
:10073000000F111F221F331FB694A794979487941C
:100740003197A1F62B893C89EB85FC852E0F3F1F45
:100750002E5F3F4F3C832B8321E0EA893A85E313E8
:1007600001C020E02A83EB81FC810CC080FF05C022
:1007700076956795579547957068B695A79597951F
:1007800087953196B7FDF2CF9F010CC0880F991F56
:10079000AA1FBB1F77FD8160440F551F661F771F7F
:1007A000215031090097A105E0E4BE0778F32B83BF
:1007B0003C838C019D010F771127222733270034BA
:1007C00011052105310559F487FD09C0452B462B3C
:1007D000472B29F0805C9F4FAF4FBF4F80788D83B0
:1007E0009E83AF83B88783E08983CE01019602C0E0
:1007F0008AE292E00E942206A096E0E10C94C81BD7
:10080000A8E1B0E0E6E0F4E00C94B41B6D8B7E8BC5
:100810008F8B988F298B3A8B4B8B5C8BBE01675FDC
:100820007F4FCE0145960E94EC06BE016F5F7F4F61
:10083000CE0141960E94EC069985923008F475C06D
:100840008981823008F474C02A853A8123272A8757
:10085000943011F0923019F4981367C06CC0843052
:1008600039F41D861E861F86188A1C861B8604C0C6
:10087000823029F484E08987CE0109965EC08B8599
:100880009C852B813C81821B930B9C878B874D859C
:100890005E856F857889CD80DE80EF80F8844C1589
:1008A0005D056E057F0538F4440F551F661F771FE1
:1008B00001979C878B87EFE1F0E000E010E020E0FB
:1008C00030E480E090E0DC014C155D056E057F05AD
:1008D00040F0802B912BA22BB32B4C195D096E0994
:1008E0007F093695279517950795440F551F661F65
:1008F000771F319749F78C019D010F771127222728
:100900003327003411052105310559F487FD09C04D
:10091000452B462B472B29F0805C9F4FAF4FBF4F95
:1009200080788D879E87AF87B88BCE01099605C0EA
:10093000CE01019602C08AE292E00E9422066896E9
:10094000E8E00C94D01BA8E1B0E0E9EAF4E00C94F4
:10095000BA1B6D8B7E8B8F8B988F298B3A8B4B8B31
:100960005C8BBE01675F7F4FCE0145960E94EC060F
:10097000BE016F5F7F4FCE0141960E94EC068985D4
:10098000823058F08981823040F0BE016F5F7F4F26
:10099000CE0109960E945B0701C08FEF6896E2E0E6
:1009A0000C94D61BA8E1B0E0E8EDF4E00C94BA1B7F
:1009B0006D8B7E8B8F8B988F298B3A8B4B8B5C8BBF
:1009C000BE01675F7F4FCE0145960E94EC06BE01D7
:1009D0006F5F7F4FCE0141960E94EC068985823081
:1009E00058F08981823040F0BE016F5F7F4FCE01A9
:1009F00009960E945B0701C081E06896E2E00C94D2
:100A0000D61BA8E0B0E0E7E0F5E00C94B81B23E0CB
:100A100029838B019C01002737FD0395112722278D
:100A20003327402F0A83611571058105910519F45B
:100A300082E0898335C02EE130E03C832B83442360
:100A400071F061157105810520E8920771F10027A9
:100A500011279801061B170B280B390B02C08B01BD
:100A60009C01C901B8010E94E51B019718161906DF
:100A70002CF00D831E832F83388712C0082E04C0EC
:100A8000000F111F221F331F0A94D2F70D831E83FC
:100A90002F8338872EE130E0281B390B3C832B83D2
:100AA000CE0101960E94220604C060E070E080E062
:100AB0009FEC2896E4E00C94D41BACE0B0E0E3E6B5
:100AC000F5E00C94B81B69877A878B879C87BE01F9
:100AD0006F5F7F4FCE0109960E94EC0689818230BC
:100AE00091F1823080F1843041F48A81882331F1A0
:100AF00000E010E020E030E829C02B813C8137FD88
:100B000022C02F3131058CF78EE190E0821B930BD0
:100B10000D811E812F81388504C036952795179544
:100B200007958A95D2F78A81882381F030952095A0
:100B3000109501951F4F2F4F3F4F08C00FEF1FEF2C
:100B40002FEF3FE703C000E010E09801B801C901B2
:100B50002C96E4E00C94D41BA8E0B0E0E2EBF5E0C6
:100B60000C94B41B8B019C011A82611571058105DF
:100B7000910519F482E089835DC083E089834EE1A9
:100B800050E05C834B83C901B8010E94E51B0197CB
:100B900097FF39C0EE27FF27E81BF90B41E050E033
:100BA00060E070E00E2E04C0440F551F661F771FD3
:100BB0000A94D2F741505109610971094023512328
:100BC00062237323C12CD12C7601C394452B462B71
:100BD000472B19F4C12CD12C760104C036952795EA
:100BE00017950795EA95D2F70C291D292E293F293B
:100BF0000D831E832F8338872EE130E0281B390BAD
:100C00003C832B8317C0009729F40D831E832F8309
:100C1000388710C0082E04C0000F111F221F331F79
:100C20000A94D2F70D831E832F833887481B590BF4
:100C30005C834B83CE0101960E9422062896E8E051
:100C40000C94D01B0F931F93CF93DF93DC0114966A
:100C50004D915D916D917C9117971196EC91119743
:100C60008C91823020F460618FEF90E0A6C08430D8
:100C700009F49EC0823009F495C041155105610503
:100C8000710509F492C012962D913C911397223868
:100C90008FEF38070CF058C0C2E8DFEFC21BD30B50
:100CA000CA31D1056CF58A019B010C2E04C0369522
:100CB0002795179507950A94D2F781E090E0A0E078
:100CC000B0E00C2E04C0880F991FAA1FBB1F0A9406
:100CD000D2F70197A109B10984239523A623B7234D
:100CE00041E050E060E070E0892B8A2B8B2B19F4F7
:100CF00040E050E0BA01402B512B622B732B03C014
:100D000040E050E0BA01DB01CA018F779927AA279A
:100D1000BB2780349105A105B10539F447FF09C00F
:100D2000405C5F4F6F4F7F4F04C0415C5F4F6F4F20
:100D30007F4F81E090E041155105610520E4720785
:100D400048F580E090E026C0203831058CF5DB01C5
:100D5000CA018F779927AA27BB2780349105A1055F
:100D6000B10539F447FF09C0405C5F4F6F4F7F4FBB
:100D700004C0415C5F4F6F4F7F4F77FD04C0C901D6
:100D800081589F4F07C07695679557954795C9013C
:100D900080589F4F97E076956795579547959A9518
:100DA000D1F70BC080E090E005C080E090E005C086
:100DB0008FEF90E040E050E0BA01982F9695E0FB6D
:100DC00097F9362F80FB37F9642F752F832FDF912A
:100DD000CF911F910F910895CF92DF92EF92DC0196
:100DE000FB01CC901196DC90119712968C91129782
:100DF0003FE7E32EE8226E2DA60170E0982F991FA1
:100E00009927991F13962C91822F880F892B90E098
:100E100027FB222720F92183009729F54115510549
:100E20006105710511F482E027C082E89FEF93838A
:100E3000828327E0440F551F661F771F2A95D1F73D
:100E400083E0808309C0440F551F661F771F82818E
:100E5000938101979383828341155105610580E455
:100E6000780788F320C08F3F910579F4411551052B
:100E70006105710519F484E0808319C0E4FE03C0A4
:100E800081E0808310C010820EC08F579109938338
:100E9000828383E0808387E0440F551F661F771F9E
:100EA0008A95D1F770644483558366837783EF9086
:100EB000DF90CF900895CF93FC01DB0190819230B9
:100EC00008F452C08C91823008F44EC0943071F412
:100ED000843039F411962C9130E08181281B31093E
:100EE00048C08181882309F43FC03BC0843029F485
:100EF00011968C91811138C034C0923019F482302F
:100F0000B9F735C0823069F3C18111968C91119780
:100F1000C8131DC02281338112968D919C91139725
:100F2000821793070CF413C0281739070CF417C065
:100F3000448155816681778114968D919D910D90A4
:100F4000BC91A02D84179507A607B70718F4C11107
:100F500008C00AC0481759076A077B0740F4C11147
:100F600003C02FEF3FEF05C021E030E002C020E0DA
:100F700030E0C901CF910895CF93DF93CDB7DEB7AD
:100F80000E94F0190E94C7070E945708FDCFCF9317
:100F9000DF93CDB7DEB72091090230910A0240916C
:100FA0000B0250910C0288EE93E0DC010E94491B79
:100FB000DC01CB018093090290930A02A0930B02FB
:100FC000B0930C0240E052EC61E070E086E994E0FE
:100FD0000E943E0C61E089E20E94C31A60E089E24F
:100FE0000E94E71A61E08AE20E94C31A60E08AE286
:100FF0000E94E71A61E088E20E94C31A60E088E27A
:101000000E94E71A61E088E20E94E71A68EE73E046
:1010100080E090E00E94BF1960E088E20E94E71A39
:1010200061E08AE20E94E71A20910D0230910E02DF
:1010300040910F025091100288EE93E0DC010E9473
:10104000491BDC01CB01BC01CD010E94BF1960E04E
:101050008AE20E94E71A88E190E029E20FB6F8944C
:10106000A895809360000FBE209360000E943B080B
:10107000DF91CF910895CF93DF93CDB7DEB761E0D5
:1010800089E20E94E71A0E948B19DC01CB01809350
:10109000720290937302A0937402B0937502A895A4
:1010A00060E089E20E94E71ADF91CF910895CF9323
:1010B000DF93CDB7DEB728970FB6F894DEBF0FBE2B
:1010C000CDBFCE01029661E172E00E9480113AC06C
:1010D00086E994E00E9475098983CE0102966981B0
:1010E0000E942B13CE01029662E172E00E94FA1474
:1010F000982F81E0992309F480E08823A1F00E94D1
:101100003B086AE070E080E090E00E94BF196FE168
:1011100072E086E994E00E94DC0ECE01029661E165
:1011200072E00E94C11189818A3031F4CE010296A9
:1011300061E172E00E94C11161E070E080E090E046
:101140000E94BF1986E994E00E94460921E00097B9
:1011500009F420E0222309F0BBCF0E948B199B01E8
:10116000AC018091720290917302A0917402B091CF
:101170007502281B390B4A0B5B0B80910902909179
:101180000A02A0910B02B0910C0261E08217930752
:10119000A407B50708F060E0662331F00E943B0821
:1011A0000E94E8080E943B08A89564E670E080E091
:1011B00090E00E94BF19CE0102960E940E1128965F
:1011C0000FB6F894DEBF0FBECDBFDF91CF9108956B
:1011D000CF93DF931F921F92CDB7DEB761E088E215
:1011E0000E94E71A68E57BE180E090E00E94BF1969
:1011F000A89560E088E20E94E71A68E873E180E061
:1012000090E00E94BF19A89561E088E20E94E71A69
:1012100068EE73E080E090E00E94BF1960E088E231
:101220000E94E71A1A82198210C061E08AE20E94C5
:10123000E71AA89568EE73E080E090E00E94BF197D
:1012400089819A8101969A83898389819A819C01F7
:10125000442737FD4095542F80910D0290910E0246
:10126000A0910F02B091100261E0281739074A07D8
:101270005B070CF060E06623C1F660E08AE20E9442
:10128000E71A0F900F90DF91CF910895FC018485AC
:101290009585FC01E05CFF4F208131818E5B9F4F83
:1012A000FC0180819181281B390B2F733070C9019B
:1012B0000895FC0184859585FC01E05CFF4F408129
:1012C0005181FC01EE5BFF4F2081318142175307B2
:1012D00041F00190F081E02DE80FF91F208130E00E
:1012E00002C02FEF3FEFC9010895FC018485958569
:1012F000FC01E05CFF4F40815181FC01EE5BFF4F40
:10130000208131814217530771F0A081B181A80F6C
:10131000B91F2C918081918101968F739070918378
:10132000808330E002C02FEF3FEFC9010895DC0158
:101330001E968D919C911F97FC01E05CFF4F8E5B88
:101340009F4F40815181DC012D913C9111974217B3
:101350005307B9F708951F93FC01162F268537858B
:10136000D901A05CBF4F8D919C91019660E470E023
:101370000E94541BD901AE5BBF4F4D915C911197F8
:1013800084179507D1F3D901A05CBF4F0D90BC9194
:10139000A02DA20FB31F1C93A685B785A05CBF4FDD
:1013A00011969C938E93A689B7892C9181E090E049
:1013B000058C02C0880F991F0A94E2F7282B2C9302
:1013C00081E090E01F910895FB01E05CFF4F2081D8
:1013D00031812F5F3F4F2F733070DB01AE5BBF4F0A
:1013E0004D915C9111972417350739F0A081B18197
:1013F000A60FB71F8C9331832083089508951F9201
:101400000F920FB60F920BB60F9211242F933F93AA
:101410004F935F936F937F938F939F93AF93BF93FC
:10142000EF93FF938091C60066E772E00E94E409A3
:10143000FF91EF91BF91AF919F918F917F916F91AC
:101440005F914F913F912F910F900BBE0F900FBE68
:101450000F901F90189508951F920F920FB60F923C
:101460000BB60F9211242F933F934F935F936F937B
:101470007F938F939F93AF93BF93EF93FF9380914D
:10148000CE006EEF72E00E94E409FF91EF91BF91F0
:10149000AF919F918F917F916F915F914F913F910C
:1014A0002F910F900BBE0F900FBE0F901F901895AD
:1014B00008951F920F920FB60F920BB60F92112440
:1014C0002F933F934F935F936F937F938F939F934C
:1014D000AF93BF93EF93FF938091D60066E873E0DC
:1014E0000E94E409FF91EF91BF91AF919F918F917D
:1014F0007F916F915F914F913F912F910F900BBE14
:101500000F900FBE0F901F90189508951F920F9285
:101510000FB60F920BB60F9211242F933F934F9358
:101520005F936F937F938F939F93AF93BF93EF934B
:10153000FF93809136016EE074E00E94E409FF9110
:10154000EF91BF91AF919F918F917F916F915F913B
:101550004F913F912F910F900BBE0F900FBE0F90A8
:101560001F90189586E994E00E944609009711F0B3
:101570000E94FE0985EB94E00E944609009711F055
:101580000E942B0A84ED94E00E944609009711F016
:101590000E94580A83EF94E00E944609009711F0D8
:1015A0000E94850A08951F920F920FB60F920BB6F4
:1015B0000F9211242F933F935F936F937F938F9399
:1015C0009F93AF93BF93EF93FF932091FA023091D3
:1015D000FB028091FC029091FD022817390731F43B
:1015E0008091C1008F7D8093C10016C0E091FC0204
:1015F000F091FD02E654FD4F20818091FC02909114
:10160000FD02019660E470E00E94541B9093FD027D
:101610008093FC022093C600FF91EF91BF91AF91A0
:101620009F918F917F916F915F913F912F910F903B
:101630000BBE0F900FBE0F901F9018951F920F9228
:101640000FB60F920BB60F9211242F933F935F9317
:101650006F937F938F939F93AF93BF93EF93FF937A
:1016600020918203309183038091840390918503BC
:101670002817390731F48091C9008F7D8093C90004
:1016800016C0E0918403F0918503EE5BFC4F20814E
:101690008091840390918503019660E470E00E943C
:1016A000541B90938503809384032093CE00FF9175
:1016B000EF91BF91AF919F918F917F916F915F91CA
:1016C0003F912F910F900BBE0F900FBE0F901F9068
:1016D00018951F920F920FB60F920BB60F9211240E
:1016E0002F933F935F936F937F938F939F93AF93CA
:1016F000BF93EF93FF9320910A0430910B048091E4
:101700000C0490910D042817390731F48091D10011
:101710008F7D8093D10016C0E0910C04F0910D04F0
:10172000E653FC4F208180910C0490910D040196AA
:1017300060E470E00E94541B90930D0480930C04AD
:101740002093D600FF91EF91BF91AF919F918F9120
:101750007F916F915F913F912F910F900BBE0F90F2
:101760000FBE0F901F9018951F920F920FB60F92F9
:101770000BB60F9211242F933F935F936F937F9338
:101780008F939F93AF93BF93EF93FF932091920416
:10179000309193048091940490919504281739070F
:1017A00031F4809131018F7D8093310116C0E09139
:1017B0009404F0919504EE5AFB4F2081809194049B
:1017C00090919504019660E470E00E94541B909300
:1017D00095048093940420933601FF91EF91BF917B
:1017E000AF919F918F917F916F915F913F912F91D9
:1017F0000F900BBE0F900FBE0F901F9018958F92F9
:10180000AF92BF92CF92DF92EF92FF920F931F930E
:10181000DF93CF93CDB7DEB7FC011382128288EE3F
:1018200093E0A0E0B0E084839583A683B7838DE442
:1018300092E0918380837587648757874687318BD1
:10184000208B138B028BF58AE48AD78AC68AB18EE5
:10185000A08E828E8F85838F8889848F8989858FDA
:101860008A89868FCF91DF911F910F91FF90EF9022
:10187000DF90CF90BF90AF908F9008959F92AF92DE
:10188000BF92CF92DF92EF92FF920F931F93CF936D
:10189000DF93EC017A018B0199249394EC89FD8903
:1018A00081E090E00E8C02C0880F991F0A94E2F745
:1018B000808360E87AE186E090E0A80197010E94C9
:1018C000681B215030404040504056954795379511
:1018D000279590E4A92E9DE0B92E93E0C92ED12C36
:1018E00012C09924EC89FD891082C601B501A801B6
:1018F00097010E94681B215030404040504056954F
:1019000047953795279580E12030380710F09920CA
:1019100041F7E889F9893083EA89FB892083EE89D8
:10192000FF89408181E090E09C010A8C02C0220F77
:10193000331F0A94E2F7422B4083EE89FF894081EE
:101940009C010B8C02C0220F331F0A94E2F7422B3A
:101950004083EE89FF8940819C010C8C02C0220FDC
:10196000331F0A94E2F7422B4083EE89FF892081DE
:101970000D8C02C0880F991F0A94E2F7809582238C
:101980008083DF91CF911F910F91FF90EF90DF90B7
:10199000CF90BF90AF909F900895CF93DF93FC01BD
:1019A00086859785DC01A05CBF4F8E5B9F4F4D9174
:1019B0005C911197EC012881398142175307B9F7DF
:1019C000A689B7894C9181E090E09C01028C02C00D
:1019D000220F331F0A94E2F7209524232C93A68923
:1019E000B7894C919C01038C02C0220F331F0A94CB
:1019F000E2F7209524232C93A689B7894C919C016A
:101A0000048C02C0220F331F0A94E2F7209524238E
:101A10002C93A689B7892C91058C02C0880F991F39
:101A20000A94E2F7809582238C9384859585FC0146
:101A3000EE5BFF4F20813181805C9F4FFC01318341
:101A40002083DF91CF9108951F93CF93DF9310925E
:101A500099041092980488EE93E0A0E0B0E080939F
:101A60009A0490939B04A0939C04B0939D04E8E98E
:101A7000F4E02DE432E03293229346E752E05587BA
:101A800044874AEB52E05787468745EC50E0518B3C
:101A9000408B44EC50E0538B428B40EC50E0558B34
:101AA000448B41EC50E0578B468B46EC50E0518F15
:101AB000408F14E0128F73E0738F67E0648F55E0FE
:101AC000558F41E0468F1092B8041092B70480936E
:101AD000B9049093BA04A093BB04B093BC04E7EBA1
:101AE000F4E032932293CEEFD2E0D587C487C2E4EC
:101AF000D3E0D787C687CDECD0E0D18BC08BCCECC0
:101B0000D0E0D38BC28BC8ECD0E0D58BC48BC9ECB2
:101B1000D0E0D78BC68BCEECD0E0D18FC08F128FA8
:101B2000738F648F558F468F1092D7041092D6040E
:101B30008093D8049093D904A093DA04B093DB0483
:101B4000E6EDF4E032932293C6E8D3E0D587C4876C
:101B5000CAECD3E0D787C687C5EDD0E0D18BC08B68
:101B6000C4EDD0E0D38BC28BC0EDD0E0D58BC48B5D
:101B7000C1EDD0E0D78BC68BC6EDD0E0D18FC08F42
:101B8000128F738F648F558F468F1092F6041092C8
:101B9000F5048093F7049093F804A093F904B093AC
:101BA000FA04E5EFF4E0329322938EE094E0958717
:101BB000848782E594E09787868785E391E0918B1F
:101BC000808B84E391E0938B828B80E391E0958B13
:101BD000848B81E391E0978B868B86E391E0918FF4
:101BE000808F128F738F648F558F468FDF91CF91C7
:101BF0001F910895CF92DF92EF92FF920F931F9360
:101C0000CF93DF936C017B018A01C0E0D0E00FC06D
:101C1000D7016D917D01D601ED91FC910190F0818C
:101C2000E02DC6011995C80FD91F015010400115AC
:101C3000110571F7CE01DF91CF911F910F91FF90A8
:101C4000EF90DF90CF900895DB010D900020E9F731
:101C5000AD0141505040461B570BDC01ED91FC910A
:101C60000280F381E02D19950895EF92FF920F9372
:101C70001F93CF93DF937C01062F172FC0E0D0E096
:101C8000F8010F5F1F4F6491662351F0F701A081A7
:101C9000B181ED91FC91C7011995C80FD91FF0CF03
:101CA000CE01DF91CF911F910F91FF90EF9008959A
:101CB000AF92BF92CF92DF92EF92FF920F931F935A
:101CC000CF93DF937C016B01C0E0D0E000E010E037
:101CD00010C0D701ED91FC91A080B180C601BE017A
:101CE0000E94F315682FC701F5011995080F191FF8
:101CF0002196F60184819581C817D90750F3C80150
:101D0000DF91CF911F910F91FF90EF90DF90CF90D7
:101D1000BF90AF9008950E94240E0895DC01ED91CC
:101D2000FC910190F081E02D199508959C01CB0163
:101D3000DB01ED91FC910190F081E02DB901199545
:101D400008950F931F93CF93DF93EC016DE00E94F2
:101D50008E0E8C01CE016AE00E948E0E080F191FB4
:101D6000C801DF91CF911F910F9108950F931F9399
:101D7000CF93DF93EC010E94350E8C01CE010E94BF
:101D8000A10E080F191FC801DF91CF911F910F916C
:101D900008950F931F93CF93DF93EC010E94580E89
:101DA0008C01CE010E94A10E080F191FC801DF91FE
:101DB000CF911F910F9108950F931F93CF93DF93AE
:101DC000EC010E94240E8C01CE010E94A10E080F8E
:101DD000191FC801DF91CF911F910F9108950F93A3
:101DE0001F93CF93DF93EC010E948E0E8C01CE01E6
:101DF0000E94A10E080F191FC801DF91CF911F91FA
:101E00000F9108950F931F93CF93DF93EC010E94DE
:101E1000960E8C01CE010E94A10E080F191FC80159
:101E2000DF91CF911F910F9108958F929F92AF9262
:101E3000BF92CF92DF92EF92FF920F931F93DF93A7
:101E4000CF93CDB7DEB7A1970FB6F894DEBF0FBE24
:101E5000CDBF6C01042FE52FCB01122F19A2223028
:101E600008F41AE021E2E22EF12CEC0EFD1E812E88
:101E70009924AA24BB2403C0022FE32FCA01602F98
:101E80007E2FA50194010E94681B129F802D1124B2
:101E9000081B0894E108F1080A3014F4005D01C041
:101EA000095CF7010083211531054105510521F732
:101EB000C601B7010E94240EA1960FB6F894DEBFAA
:101EC0000FBECDBFCF91DF911F910F91FF90EF908B
:101ED000DF90CF90BF90AF909F908F900895211585
:101EE000310549F4DC01ED91FC910190F081E02D88
:101EF000642F199508950E94150F08950F931F934D
:101F0000CF93DF93EC010E946F0F8C01CE010E94F2
:101F1000A10E080F191FC801DF91CF911F910F91DA
:101F200008959A01AB0160E070E00E946F0F089580
:101F30000F931F93CF93DF93EC019A01AB0160E005
:101F400070E00E946F0F8C01CE010E94A10E080F5D
:101F5000191FC801DF91CF911F910F9108959A0128
:101F6000462F50E060E070E00E946F0F08950F93DD
:101F70001F93CF93DF93EC019A01462F50E060E06E
:101F800070E00E946F0F8C01CE010E94A10E080F1D
:101F9000191FC801DF91CF911F910F910895CF9222
:101FA000DF92EF92FF920F931F93CF93DF93EC0199
:101FB0007A018B012115310541F4E881F981019005
:101FC000F081E02D642F19951AC02A303105A9F44B
:101FD00077FF12C06DE20E948E0E6C0144275527D8
:101FE000BA014E195F09600B710BCE012AE00E9405
:101FF000150FC80ED91E04C02AE00E94150F6C01EF
:10200000C601DF91CF911F910F91FF90EF90DF906C
:10201000CF9008950F931F93CF93DF93EC010E940D
:10202000CF0F8C01CE010E94A10E080F191FC8010D
:10203000DF91CF911F910F9108959A01FB01AF019C
:10204000662757FD6095762F0E94CF0F08950F9356
:102050001F93CF93DF93EC019A01CB01AC0166276C
:1020600057FD6095762FCE010E94CF0F8C01CE01D7
:102070000E94A10E080F191FC801DF91CF911F9177
:102080000F9108956F927F929F92AF92BF92CF92DD
:10209000DF92EF92FF920F931F93CF93DF933C0158
:1020A0007A018B01C22ECB01BA0120E030E0A901F8
:1020B0000E94D20487FF0AC0C3016DE20E948E0E07
:1020C000EC0117FB109517F9109502C0C0E0D0E0A5
:1020D000DD2450E040E030E02FE311C0DA01F901E7
:1020E0006B2F742F8F2F922F20E030E040E251E4CD
:1020F0000E940004562F472F382F292FD394DC1429
:1021000068F3C801B701DA01F9012B2F342F4F2FE3
:102110005E2F0E94BF025B01F82E992E7B2D0E943C
:102120003601162FD72EE82E092F0E94AC059B01F1
:10213000AC016A2D7B2D8F2D992D0E94EB02962EDE
:10214000A72EB82EF92EC301412F5D2D6E2D702FB5
:102150002AE030E00E946F0FC80FD91FCC20B9F1E0
:10216000C30160E072E00E94240EC80FD91F2FC087
:10217000692D7A2D8B2D9F2D20E030E040E251E437
:102180000E941B03D62EB72EA82E992E0E945D0505
:102190007B010027F7FC0095102FC301B801A701B0
:1021A0002AE030E00E94CF0FC80FD91FC801B70145
:1021B0000E9401059B01AC016D2D7B2D8A2D992D6F
:1021C0000E94EB02962EA72EB82EF92ECA94CC2090
:1021D00079F6CE01DF91CF911F910F91FF90EF9093
:1021E000DF90CF90BF90AF909F907F906F900895B9
:1021F0000E94421008950F931F93CF93DF93EC0139
:102200000E9442108C01CE010E94A10E080F191FDE
:10221000C801DF91CF911F910F910895FC0180813A
:1022200091810E949B1C0895CF93DF93EC018881DC
:102230009981009711F00E949B1C198218821D82BF
:102240001C821B821A82DF91CF9108950F931F93F6
:10225000CF93DF93EC018B016F5F7F4F8881998172
:102260000E94391D009731F0998388831B830A836C
:1022700081E001C080E0DF91CF911F910F9108951F
:10228000CF93DF93EC0188819981009729F08A81AF
:102290009B818617970778F4CE010E942611882328
:1022A00041F08C819D81009731F4E881F9811082A1
:1022B00002C080E001C081E0DF91CF910895EF92EC
:1022C000FF920F931F93CF93DF93EC017B018A0161
:1022D000BA010E944011882321F4CE010E941411FA
:1022E00007C01D830C8388819981B7010E94871ED6
:1022F000CE01DF91CF911F910F91FF90EF90089544
:10230000CF93DF93FC011182108213821282158217
:10231000148216826115710559F0EB0109900020B5
:10232000E9F7AE0141505040461B570B0E945F1128
:10233000DF91CF910895EF92FF92CF93DF93EC015D
:10234000FB018617970761F0608171816115710546
:1023500029F0448155810E945F1102C00E9414112E
:10236000CE01DF91CF91FF90EF900895FC01118293
:102370001082138212821582148216820E949B118F
:1023800008950F931F938C016115710561F0DB01B6
:102390000D900020E9F7AD0141505040461B570B0E
:1023A0000E945F1102C00E941411C8011F910F9179
:1023B0000895EF92FF920F931F93DF93CF93CDB7C2
:1023C000DEB7A1970FB6F894DEBF0FBECDBF7C017C
:1023D000CB01BA01F7011182108213821282158299
:1023E000148216828E010F5F1F4FA80130E00E94F9
:1023F0003A1FC701B8010E94C111A1960FB6F89407
:10240000DEBF0FBECDBFCF91DF911F910F91FF9027
:10241000EF900895EF92FF920F931F93DF93CF9366
:10242000CDB7DEB7A2970FB6F894DEBF0FBECDBF13
:102430007C01CB01BA01F701118210821382128252
:102440001582148216828E010F5F1F4FA80130E0A3
:102450000E94F11EC701B8010E94C111A2960FB6D9
:10246000F894DEBF0FBECDBFCF91DF911F910F91CA
:10247000FF90EF900895EF92FF920F931F93DF93D9
:10248000CF93CDB7DEB761970FB6F894DEBF0FBE1E
:10249000CDBF7C01CB01F701118210821382128221
:1024A0001582148216828E010F5F1F4FB80150E013
:1024B0000E945F1FC701B8010E94C11161960FB64B
:1024C000F894DEBF0FBECDBFCF91DF911F910F916A
:1024D000FF90EF900895EF92FF920F931F93DF9379
:1024E000CF93CDB7DEB762970FB6F894DEBF0FBEBD
:1024F000CDBF7C01CB01F7011182108213821282C1
:102500001582148216828E010F5F1F4FB80150E0B2
:102510000E94D01EC701B8010E94C11162960FB679
:10252000F894DEBF0FBECDBFCF91DF911F910F9109
:10253000FF90EF900895EF92FF920F931F93DF9318
:10254000CF93CDB7DEB729970FB6F894DEBF0FBE95
:10255000CDBF7C01862FF701118210821382128277
:1025600015821482168290E08E010F5F1F4FB80112
:1025700050E00E945F1FC701B8010E94C111299657
:102580000FB6F894DEBF0FBECDBFCF91DF911F9184
:102590000F91FF90EF900895DF93CF930F920F92DA
:1025A000CDB7DEB7FC011182108213821282158230
:1025B0001482168269831A82BE016F5F7F4F0E9468
:1025C000C1110F900F90CF91DF910895EF92FF927C
:1025D0000F931F93CF93DF93EC017B010C811D813F
:1025E00061157105B9F04115510591F0040F151FE2
:1025F000B8010E944011882369F0288139818C81BB
:102600009D81820F931FB7010E94871E1D830C833B
:1026100081E001C080E0DF91CF911F910F91FF9089
:10262000EF900895FB0160817181448155810E9482
:10263000E61208956115710561F0DB010D9000202F
:10264000E9F7AD0141505040461B570B0E94E6127E
:10265000089580E00895DF93CF930F920F92CDB746
:10266000DEB769831A82BE016F5F7F4F41E050E0A1
:102670000E94E6120F900F90CF91DF910895EF9294
:10268000FF920F931F93DF93CF9300D00F92CDB79C
:10269000DEB77C01862F90E08E010F5F1F4FB801DF
:1026A0004AE050E00E94D01EF80101900020E9F7B6
:1026B000AF0141505040401B510BC701B8010E946F
:1026C000E6120F900F900F900F90CF91DF911F9116
:1026D0000F91FF90EF900895EF92FF920F931F9349
:1026E000DF93CF93CDB7DEB727970FB6F894DEBF51
:1026F0000FBECDBF7C01CB018E010F5F1F4FB80114
:102700004AE050E00E94D01EF80101900020E9F755
:10271000AF0141505040401B510BC701B8010E940E
:10272000E61227960FB6F894DEBF0FBECDBFCF914D
:10273000DF911F910F91FF90EF900895EF92FF921C
:102740000F931F93DF93CF9300D000D0CDB7DEB7A8
:102750007C01CB018E010F5F1F4FB8014AE050E0B2
:102760000E945F1FF80101900020E9F7AF0141507E
:102770005040401B510BC701B8010E94E61226963B
:102780000FB6F894DEBF0FBECDBFCF91DF911F9182
:102790000F91FF90EF900895EF92FF920F931F9388
:1027A000DF93CF93CDB7DEB72C970FB6F894DEBF8B
:1027B0000FBECDBF7C01CB01BA018E010F5F1F4F51
:1027C000A8012AE030E00E94F11EF80101900020EB
:1027D000E9F7AF0141505040401B510BC701B80110
:1027E0000E94E6122C960FB6F894DEBF0FBECDBF46
:1027F000CF91DF911F910F91FF90EF900895EF928D
:10280000FF920F931F93DF93CF93CDB7DEB72B9734
:102810000FB6F894DEBF0FBECDBF7C01CB01BA016D
:102820008E010F5F1F4FA8012AE030E00E943A1F7F
:10283000F80101900020E9F7AF0141505040401BE2
:10284000510BC701B8010E94E6122B960FB6F894FF
:10285000DEBF0FBECDBFCF91DF911F910F91FF90D3
:10286000EF9008950F931F938C01FB01608171819C
:10287000448155810E94E612882319F4C8010E9400
:102880001411C8011F910F9108950F931F938C018C
:102890006115710569F0DB010D900020E9F7AD01CC
:1028A00041505040461B570B0E94E612882319F4F2
:1028B000C8010E941411C8011F910F9108950F9330
:1028C0001F938C010E942B13882319F4C8010E94C6
:1028D0001411C8011F910F9108950F931F938C013C
:1028E0000E943F13882319F4C8010E941411C801E3
:1028F0001F910F9108950F931F938C010E946C13E9
:10290000882319F4C8010E941411C8011F910F9166
:1029100008950F931F938C010E949E13882319F42E
:10292000C8010E941411C8011F910F9108950F93BF
:102930001F938C010E94CC13882319F4C8010E94B4
:102940001411C8011F910F9108950F931F938C01CB
:102950000E94FF13882319F4C8010E941411C801B2
:102960001F910F910895CF93DF93FC01DB018081CC
:102970009181009731F06D917C91119761157105EE
:10298000E9F4CD91DC911197209769F014962D917F
:102990003C9115972115310531F0288130E03095B3
:1029A00021953F4F12C0009771F024813581211588
:1029B000310549F0FC01208130E007C00E947E1EF5
:1029C000282F392F02C020E030E0C901DF91CF91DC
:1029D0000895FC0144815581FB0124813581421712
:1029E000530729F40E94B31421E0009709F020E076
:1029F000822F0895FC0184819581009741F461152F
:102A0000710519F081E0FB0109C081E00895019092
:102A1000F081E02D6115710531F481E090819923F9
:102A200059F080E00895CF010E947E1E9C0181E054
:102A30002115310509F080E008950E94B314892F13
:102A4000881F8827881F08950E94B31421E0181654
:102A500019060CF020E0822F08950E94B31421E0A3
:102A6000181619060CF420E0822F08950E94B31462
:102A7000892F8095881F8827881F0895EF92FF92DD
:102A80000F931F93CF93DF93FC01DB01861797070A
:102A900029F18481958114962D913C911597821787
:102AA0009307F1F40097D1F000811181CD91DC9171
:102AB00011970FC0992787FD90950E94481E7C01B1
:102AC0008991992787FD90950E94481EE816F9067E
:102AD00039F4F80181918F01882361F781E001C009
:102AE00080E0DF91CF911F910F91FF90EF900895BB
:102AF000FC01DB01CA0114964D915C91159724816C
:102B00003581241B350B28173907A0F0208131812E
:102B10002115310579F06D917C9111976115710541
:102B200059F0820F931F0E948E1E9C0181E0211597
:102B3000310519F080E0089580E00895FC0144819A
:102B40005581FB01248135814217530728F040E06D
:102B500050E00E947815089580E00895FC01DB01A3
:102B60008481958114964D915C91159784179507F2
:102B7000B0F0208131812115310589F06D917C9172
:102B800011976115710569F0841B950B820F931FD6
:102B90000E947E1E9C0181E02115310519F080E024
:102BA000089580E00895FC01848195816817790774
:102BB00030F40190F081E02DE60FF71F4083089577
:102BC000FC01848195816817790720F480819181C7
:102BD000009729F41092120562E175E002C0680FB7
:102BE000791FCB010895FC018481958168177907CD
:102BF00048F480819181009739F0680F791FFB01BB
:102C00008081089580E0089580E008950E94F31582
:102C100008950F931F93CF93DF93FC018B01411510
:102C20005105F1F061157105D9F0C481D5812C17DA
:102C30003D0718F0FB01108213C041505040C21BE9
:102C4000D30B4C175D0708F4EA0160817181620FB4
:102C5000731FC801AE010E949C1EC00FD11F1882B5
:102C6000DF91CF911F910F910895CF93DF93FC01D6
:102C7000CA01248135814217530778F4C081D1817C
:102C8000772767FD70958C0F9D1F0E94731E00971C
:102C900021F09C012C1B3D0B02C02FEF3FEFC9011F
:102CA000DF91CF91089540E050E00E9435160895DD
:102CB000CF93DF93FC01CA0124813581421753076A
:102CC00078F4C081D181FB01608171818C0F9D1FDF
:102CD0000E94B61E009721F09C012C1B3D0B02C0E8
:102CE0002FEF3FEFC901DF91CF91089540E050E011
:102CF0000E9458160895DF92EF92FF920F931F9350
:102D0000CF93DF93EC018C819D8148175907F8F42C
:102D10007A010894E11CF11CE881F981EE0DFF1D98
:102D2000D080108208811981772767FD7095C801CE
:102D30000E94AB1E0E0D1F1DF801D082009739F0C6
:102D400028813981AC01421B530B9A0102C02FEF3D
:102D50003FEFC901DF91CF911F910F91FF90EF904D
:102D6000DF900895FC0144815581415050400E94FC
:102D70007B160895AF92BF92CF92DF92EF92FF92AF
:102D80000F931F93CF93DF93FC016B018A01DB014B
:102D900014962D913C9115972115310551F184819F
:102DA0009581009731F18217930718F14817590759
:102DB00018F08C0101501040E080F180C701CFEF86
:102DC000DFEF5701A00EB11E10C0F60160817181C6
:102DD0000E94B61E009779F09C012E193F09021738
:102DE000130708F49E010196E901A816B90668F7D1
:102DF00002C0CFEFDFEFCE01DF91CF911F910F9196
:102E0000FF90EF90DF90CF90BF90AF900895FC01BE
:102E100044815581FB0124813581421B530B0E9463
:102E2000BA160895AF92BF92CF92DF92EF92FF92BF
:102E30000F931F93CF93DF93F82EE92E6B018A0136
:102E4000E9012417350748F4342F212F8E01C901D9
:102E5000A92EE5015E01B22EE5018F2D9E2D62E0C7
:102E600072E00E948011D60114968D919C91159765
:102E700080179107D8F08C179D0708F4EC01D60154
:102E8000ED91FC911197EC0FFD1FB08010826D91B8
:102E90007C91600F711F8F2D9E2D0E94C111D60154
:102EA000ED91FC911197EC0FFD1FB0828F2D9E2D9F
:102EB000DF91CF911F910F91FF90EF90DF90CF9016
:102EC000BF90AF900895CF93DF93EC01FB01248175
:102ED00035810E941217CE01DF91CF910895DC0158
:102EE000ED91FC911197309729F40895861709F414
:102EF0004083319680818823C9F708952F923F92AD
:102F00004F925F926F927F928F929F92AF92BF92F9
:102F1000CF92DF92EF92FF920F931F93CF93DF93A5
:102F20007C012B016A01DC0114966D907C90159751
:102F30006114710409F4D9C0FB0184809580811467
:102F4000910409F4D2C0DA011496AD90BC901597A3
:102F5000A818B908FC0100811181A114B104F1F491
:102F600013C0D6016C9111967C91119714964D91D6
:102F70005C911597CE010E94581ED60114960D91B2
:102F80001C9115970C0F1D1FF20160817181C80102
:102F90000E94B61EEC01009721F7A7C0B7FC02C043
:102FA000E30142C048012DC0E301C01BD10BC401A5
:102FB000B801AE010E94581EC80DD91DD6016C91F2
:102FC00011967C91119714964D915C911597CE01B5
:102FD0000E94581ED60114968D909C9015978C0EC9
:102FE0009D1EF20104811581060D171DD70114964F
:102FF0008D919C9115978A0D9B1D15969C938E9390
:103000001497F20160817181C8010E94B61E3C01D3
:10301000009751F6C401B8010E94871E66C08C015A
:10302000080D191DCA0DDB1DD2016D917C91C801DF
:103030000E94B61E009799F7C615D70509F455C02A
:10304000F701828193818C179D0708F045C0C70165
:10305000BE010E942611882309F447C03DC0C70164
:10306000B201A9010E94BA16EC0197FD3EC0D7013A
:103070006D917C911197F201848195818C0F9D1F38
:10308000680F791F14964D915C911597481B590B49
:10309000CB018A0D9B1D0E94611ED70114968D9154
:1030A0009C9115978A0D9B1D15969C938E93149752
:1030B000ED91FC911197E80FF91F10822D913C9131
:1030C0002C0F3D1FF6016081718144815581C9013A
:1030D0000E94581E9E0105C0D70114962D913C9167
:1030E00015972150304037FFBACFDF91CF911F9114
:1030F0000F91FF90EF90DF90CF90BF90AF909F9097
:103100008F907F906F905F904F903F902F90089599
:10311000CF93DF93FC01C081D181209739F409C09E
:10312000992787FD90950E94481E8993888188235E
:10313000B9F7DF91CF910895CF93DF93FC01C08160
:10314000D181209739F409C0992787FD90950E9475
:10315000501E899388818823B9F7DF91CF91089514
:10316000AF92BF92CF92DF92EF92FF920F931F9395
:10317000CF93DF936C01DC01ED90FC901197E1148B
:10318000F10409F443C01496AD90BC901597A114B6
:10319000B104E1F18701E80188810F5F1F4F992792
:1031A00087FD90950E94401E0097A9F78501015068
:1031B00010400E0D1F1DF8018081992787FD909505
:1031C0000E94401E009731F00C171D0718F00150A7
:1031D0001040F1CF0F5F1F4F0C1B1D0BD601159632
:1031E0001C930E931497EC16FD0628F4C701BE013C
:1031F000A8010E94581ED601ED91FC9111971496DA
:103200008D919C911597E80FF91F1082DF91CF9156
:103210001F910F91FF90EF90DF90CF90BF90AF90F4
:103220000895FC0180819181009729F00E94191E68
:103230009B01AC0103C020E030E0A901B901CA0143
:1032400008950E94001C08950E949B1C089521E08F
:1032500030E0FC018081882311F020E030E0C901DA
:10326000089521E0FC0120830895089508951F9298
:103270000F920FB60F9211242F933F934F935F93AA
:103280006F937F938F939F93AF93BF932091170575
:10329000309118054091190550911A0570911B0540
:1032A000DA01C9010A96A11DB11D672F625E6D3753
:1032B00030F06D57DA01C9010B96A11DB11D609365
:1032C0001B058093170590931805A0931905B093DB
:1032D0001A058091130590911405A0911505B091E0
:1032E00016050196A11DB11D809313059093140539
:1032F000A0931505B0931605BF91AF919F918F9143
:103300007F916F915F914F913F912F910F900FBEE1
:103310000F901F9018958FB7F89420911705309152
:1033200018054091190550911A058FBFB901CA01BE
:1033300008959FB7F894209113053091140540919A
:1033400015055091160586B5A89B06C08F3F21F044
:103350002F5F3F4F4F4F5F4F9FBF542F432F322F51
:103360002227280F311D411D511D86E0220F331FDA
:10337000441F551F8A95D1F7B901CA010895EF92EC
:10338000FF920F931F93CF93DF937B018C010E94D9
:103390009919EB010FC00E9499196C1B7D0B83E0FA
:1033A000683E780738F00894E108F108010911092E
:1033B000C851DC4FE114F1040105110561F7DF91FB
:1033C000CF911F910F91FF90EF900895019739F0E1
:1033D000019729F0880F991F01970197F1F7089538
:1033E000789484B5826084BD84B5816084BD85B5E0
:1033F000826085BD85B5816085BDEEE6F0E08081A7
:1034000081608083E1E8F0E01082808182608083C7
:10341000E0E8F0E0808181608083E1EBF0E0808192
:1034200084608083E0EBF0E0808181608083E1E96B
:10343000F0E0808182608083808181608083E0E928
:10344000F0E0808181608083E1EAF0E08081826049
:103450008083808181608083E0EAF0E08081816008
:103460008083E1E2F1E080818260808380818160FD
:103470008083E0E2F1E0808181608083EAE7F0E030
:10348000808184608083808182608083808181608C
:1034900080838081806880831092C1000895893084
:1034A00009F449C08A30A0F4843051F1853040F4E9
:1034B000823079F1833000F5813009F063C026C095
:1034C000873079F1883098F5863009F05BC025C0E7
:1034D0008D3009F442C08E3028F48B30B1F18C303D
:1034E000C0F52DC0803109F442C0813109F445C0D6
:1034F0008F3009F047C037C0809180008F7703C0BC
:10350000809180008F7D80938000089584B58F77AF
:1035100002C084B58F7D84BD08958091B0008F77FF
:1035200003C08091B0008F7D8093B000089580919A
:1035300090008F7707C0809190008F7D03C08091AD
:103540009000877F8093900008958091A0008F77EE
:1035500007C08091A0008F7D03C08091A000877F6D
:103560008093A0000895809120018F7703C08091FF
:1035700020018F7D80932001089580912001877F15
:1035800080932001089590E0FC01E858FE4F2491BB
:10359000FC01EE5CFE4FE491EE23C1F0F0E0EE0F93
:1035A000FF1FEC51FF4F85919491DC01662341F49C
:1035B0009FB7F8948C91209582238C939FBF089598
:1035C0009FB7F8948C91822B8C939FBF08950F9393
:1035D0001F93DF93CF930F92CDB7DEB7282F30E044
:1035E000F901E254FE4F8491F901E858FE4F14911D
:1035F0002E5C3E4FF90104910023D9F0882321F07D
:1036000069830E944F1A6981E02FF0E0EE0FFF1FDF
:10361000E250FF4F85919491DC019FB7F8946623A7
:1036200021F48C911095812302C08C91812B8C9375
:103630009FBF0F90CF91DF911F910F9108950F932E
:103640001F93282F30E0F901E254FE4F8491F901D5
:10365000E858FE4F04912E5C3E4FF901149111235E
:1036600091F0882311F00E944F1AE12FF0E0EE0F45
:10367000FF1FE85EFE4F85919491DC018C918023C1
:1036800021E030E011F420E030E0C9011F910F91FA
:1036900008950E948A1BA59F900DB49F900DA49F32
:1036A000800D911D1124089597FB072E16F40094A8
:1036B00007D077FD09D00E94961B07FC05D03EF489
:1036C000909581959F4F0895709561957F4F0895CE
:1036D000A1E21A2EAA1BBB1BFD010DC0AA1FBB1F16
:1036E000EE1FFF1FA217B307E407F50720F0A21B88
:1036F000B30BE40BF50B661F771F881F991F1A94F5
:1037000069F760957095809590959B01AC01BD011E
:10371000CF010895A29FB001B39FC001A39F01D024
:10372000B29F700D811D1124911D0895AA1BBB1B12
:1037300051E107C0AA1FBB1FA617B70710F0A61BB1
:10374000B70B881F991F5A95A9F780959095BC01D2
:10375000CD0108952F923F924F925F926F927F9288
:103760008F929F92AF92BF92CF92DF92EF92FF9291
:103770000F931F93CF93DF93CDB7DEB7CA1BDB0B3D
:103780000FB6F894DEBF0FBECDBF19942A883988D2
:1037900048885F846E847D848C849B84AA84B984E9
:1037A000C884DF80EE80FD800C811B81AA81B981F5
:1037B000CE0FD11D0FB6F894DEBF0FBECDBFED0109
:1037C00008950790F691E02D19940E94EE1B84FF56
:1037D0000895CB010E94EE1B805F0895AA279923CC
:1037E00029F4A85F982B11F480E10895903118F422
:1037F000AD5F9295A395990FE8F78A2F99270895C1
:103800000F931F93CF93DF938230910510F482E0E2
:1038100090E0E0911E05F0911F0520E030E0C0E04F
:10382000D0E023C04081518148175907A8F04817BC
:10383000590761F482819381209719F09B838A83D1
:103840002EC090931F0580931E0529C021153105B8
:1038500029F04217530710F0A90102C0BE01DF0191
:1038600002811381EF019A01F8013097D9F62115F1
:10387000310509F1281B390B2430310590F41296DB
:103880008D919C9113976115710521F0FB01938334
:10389000828304C090931F0580931E05FD0132961C
:1038A00044C0FD01E20FF31F81939193225031092F
:1038B0002D933C933AC020911C0530911D05232B7C
:1038C00041F4209105023091060230931D052093AA
:1038D0001C0520910302309104022115310541F4A9
:1038E0002DB73EB74091070250910802241B350BBB
:1038F000E0911C05F0911D05E217F307A0F42E1BC3
:103900003F0B2817390778F0AC014E5F5F4F241743
:10391000350748F04E0F5F1F50931D0540931C055F
:103920008193919302C0E0E0F0E0CF01DF91CF916D
:103930001F910F910895EF92FF920F931F93CF93D2
:10394000DF93009709F48EC0DC01129713961C9246
:103950001E921297E0901E05F0901F05E114F104ED
:1039600089F42D913C911197280F391F80911C05E6
:1039700090911D058217930789F5B0931D05A093BB
:103980001C0570C0E70120E030E001C0EA01CA1761
:10399000DB0738F44A815B819E0141155105B1F77F
:1039A00022C0AC0142505109FA01D383C283008185
:1039B0001181BC01600F711F6C177D0761F4688174
:1039C0007981600F711F6E5F7F4F718360836A81A1
:1039D0007B81738362832115310529F4B0931F0520
:1039E000A0931E053FC0F901B383A283E901499169
:1039F0005991C40FD51FAC17BD0771F4DC019E911E
:103A00008E91840F951F02969183808312968D91DB
:103A10009C91139793838283A0E0B0E002C0D7010A
:103A20007C01F701828193810097C9F7C701029653
:103A300020813181820F931F20911C0530911D053B
:103A40002817390779F4109729F410921F0510925E
:103A50001E0504C013961C921E921297F0921D052B
:103A6000E0921C05DF91CF911F910F91FF90EF9095
:103A700008958F929F92AF92BF92CF92DF92EF9272
:103A8000FF920F931F93CF93DF93EC01009779F48C
:103A9000CB01DF91CF911F910F91FF90EF90DF90BD
:103AA000CF90BF90AF909F908F900C94001CDC0142
:103AB000A60FB71FFC013297AE17BF0718F4C0E07E
:103AC000D0E0A9C00081118106171707B0F00530BA
:103AD000110508F4A0C0C80104978617970708F4D9
:103AE0009AC002501109061B170B0D931D93718389
:103AF0006083CD010E949B1C8EC06B01C01AD10A4D
:103B00007C01E00EF11EE0911E05F0911F0520E002
:103B100030E080E090E048C0EE15FF05D1F58080F0
:103B20009180540142E0A40EB11CAC14BD0488F194
:103B30007401EC18FD08670122E0C20ED11C9E0141
:103B40002250310945E0C416D10478F042815381F6
:103B500013965C934E9312971196FC92EE92F90194
:103B6000718360833A2F2B2F09C00E5F1F4F080D02
:103B7000191DD9010D931C9332812381009721F0E7
:103B8000FC013283238347C030931E0520931F0519
:103B900042C0808191812817390708F49C01528125
:103BA0004381CF01E52FF42F309709F0B5CF8091F5
:103BB0001C0590911D058E159F05F1F426173707FA
:103BC000D8F48091030290910402009741F48DB7DC
:103BD0009EB72091070230910802821B930BA81711
:103BE000B90708F06CCFB0931D05A0931C05FE012A
:103BF0003297718360830FC0CB010E94001C7C014F
:103C0000009709F45CCFA801BE010E94581ECE01A6
:103C10000E949B1CE701CE01DF91CF911F910F9174
:103C2000FF90EF90DF90CF90BF90AF909F908F90DC
:103C300008951F93FC0199278827BC01E8941191EE
:103C40001032E9F3193010F01E30C8F31B3251F076
:103C50001D3249F4689406C00E94251F610F711D32
:103C6000811D911D119110531A30B0F33EF49095BF
:103C70008095709561957F4F8F4F9F4F1F9108954D
:103C8000911133C1803219F089508550D0F70895D1
:103C90009111089581548A5108F4805E855A0895DF
:103CA0009111089581568A5108F4805285580895DB
:103CB000FB01DC0102C001900D9241505040D8F749
:103CC00008956817790768F4FB01DC01E40FF51F1C
:103CD000A40FB51F02C002900E9241505040D8F779
:103CE00008950C94581EFC018191861721F08823B9
:103CF000D9F7992708953197CF010895FB01DC0189
:103D00008D91019080190110D9F3990B0895FB0151
:103D1000DC0101900D920020E1F70895FB01DC0128
:103D20004150504030F08D910190801919F40020DD
:103D3000B9F7881B990B0895FB01DC0141505040F5
:103D400048F001900D920020C9F701C01D9241502A
:103D50005040E0F70895FC0181E090E001900616E4
:103D600009F4CF010020D1F701970895FB0151918B
:103D70005523A9F0BF01DC014D9145174111E1F731
:103D800059F4CD010190002049F04D9140154111A9
:103D9000C9F3FB014111EFCF81E090E00197089555
:103DA000FB019F01E8944230C4F04532B4F44A303C
:103DB00029F497FB1EF4909581959F4F642F7727E8
:103DC0000E94961B805D8A330CF0895D8193CB0144
:103DD0000097A1F716F45DE251931082C9010C948B
:103DE000781FFA01CF93FF93EF93223044F12532ED
:103DF00034F5C22FE894CA3049F497FB3EF490950D
:103E00008095709561957F4F8F4F9F4F2C2F332753
:103E100044275527FF93EF930E94681BEF91FF9172
:103E2000605D6A330CF0695D6193B901CA0160504D
:103E300070408040904051F716F4CDE2C19310825B
:103E40008F919F91CF910C94781F592F482F372F26
:103E5000262F660F771F881F991F660F771F881FF1
:103E6000991F620F731F841F951F660F771F881F8E
:103E7000991F0895FA01CF93FF93EF932230CCF06E
:103E80002532BCF4C22F2C2F332744275527FF930C
:103E9000EF930E94681BEF91FF91605D6A330CF015
:103EA000695D6193B901CA016050704080409040E3
:103EB00051F710828F919F91CF910C94781FFB0145
:103EC0009F01423074F0453264F4642F77270E94DA
:103ED000961B805D8A330CF0895D8193CB0100973E
:103EE000A1F71082C9010C94781F9927882708959B
:103EF000DC01FC01672F71917723E1F7329704C051
:103F00007C916D9370836291AE17BF07C8F30895DB
:043F1000F894FFCF53
:103F14002E000000002005200078000000B40000FE
:103F240000007379737764745F7265736574004F0E
:103F34004B7C53554343455353000000000000009D
:103F440000003533323414150D363738393A3B3CDA
:103F54003D3E3F40414243444500000000AB09FA66
:103F64000D4609750959099709000000003619FA28
:103F74000D3619361936193619000000003619FAAB
:023F84000D002E
:00000001FF
